{
  "contractName": "Voting",
  "abi": [
    {
      "inputs": [
        {
          "internalType": "bytes32[]",
          "name": "candidateNames",
          "type": "bytes32[]"
        }
      ],
      "payable": false,
      "stateMutability": "nonpayable",
      "type": "constructor"
    },
    {
      "constant": true,
      "inputs": [
        {
          "internalType": "uint256",
          "name": "",
          "type": "uint256"
        }
      ],
      "name": "candidateList",
      "outputs": [
        {
          "internalType": "bytes32",
          "name": "",
          "type": "bytes32"
        }
      ],
      "payable": false,
      "stateMutability": "view",
      "type": "function"
    },
    {
      "constant": true,
      "inputs": [
        {
          "internalType": "bytes32",
          "name": "",
          "type": "bytes32"
        }
      ],
      "name": "votesReceived",
      "outputs": [
        {
          "internalType": "uint8",
          "name": "",
          "type": "uint8"
        }
      ],
      "payable": false,
      "stateMutability": "view",
      "type": "function"
    },
    {
      "constant": true,
      "inputs": [
        {
          "internalType": "bytes32",
          "name": "candidate",
          "type": "bytes32"
        }
      ],
      "name": "totalVotesFor",
      "outputs": [
        {
          "internalType": "uint8",
          "name": "",
          "type": "uint8"
        }
      ],
      "payable": false,
      "stateMutability": "view",
      "type": "function"
    },
    {
      "constant": false,
      "inputs": [
        {
          "internalType": "bytes32",
          "name": "candidate",
          "type": "bytes32"
        }
      ],
      "name": "voteForCandidate",
      "outputs": [],
      "payable": false,
      "stateMutability": "nonpayable",
      "type": "function"
    },
    {
      "constant": true,
      "inputs": [
        {
          "internalType": "bytes32",
          "name": "candidate",
          "type": "bytes32"
        }
      ],
      "name": "validCandidate",
      "outputs": [
        {
          "internalType": "bool",
          "name": "",
          "type": "bool"
        }
      ],
      "payable": false,
      "stateMutability": "view",
      "type": "function"
    }
  ],
  "bytecode": "0x608060405234801561001057600080fd5b506040516104643803806104648339818101604052602081101561003357600080fd5b810190808051604051939291908464010000000082111561005357600080fd5b8382019150602082018581111561006957600080fd5b825186602082028301116401000000008211171561008657600080fd5b8083526020830192505050908051906020019060200280838360005b838110156100bd5780820151818401526020810190506100a2565b5050505090500160405250505080600190805190602001906100e09291906100e7565b5050610159565b828054828255906000526020600020908101928215610123579160200282015b82811115610122578251825591602001919060010190610107565b5b5090506101309190610134565b5090565b61015691905b8082111561015257600081600090555060010161013a565b5090565b90565b6102fc806101686000396000f3fe608060405234801561001057600080fd5b50600436106100575760003560e01c80632f265cf71461005c578063392e6678146100a45780637021939f146100ea578063b13c744b14610132578063cc9ab26714610174575b600080fd5b6100886004803603602081101561007257600080fd5b81019080803590602001909291905050506101a2565b604051808260ff1660ff16815260200191505060405180910390f35b6100d0600480360360208110156100ba57600080fd5b81019080803590602001909291905050506101dd565b604051808215151515815260200191505060405180910390f35b6101166004803603602081101561010057600080fd5b8101908080359060200190929190505050610233565b604051808260ff1660ff16815260200191505060405180910390f35b61015e6004803603602081101561014857600080fd5b8101908080359060200190929190505050610253565b6040518082815260200191505060405180910390f35b6101a06004803603602081101561018a57600080fd5b8101908080359060200190929190505050610274565b005b60006101ad826101dd565b6101b657600080fd5b60008083815260200190815260200160002060009054906101000a900460ff169050919050565b600080600090505b60018054905081101561022857826001828154811061020057fe5b9060005260206000200154141561021b57600191505061022e565b80806001019150506101e5565b50600090505b919050565b60006020528060005260406000206000915054906101000a900460ff1681565b6001818154811061026057fe5b906000526020600020016000915090505481565b61027d816101dd565b61028657600080fd5b600160008083815260200190815260200160002060008282829054906101000a900460ff160192506101000a81548160ff021916908360ff1602179055505056fea265627a7a7231582021e6ad430bbbefdea389e1845d76a94f28173426962dc4fddca8bf39880e4b3d64736f6c63430005100032",
  "source": "pragma solidity ^0.5.16;\n\ncontract Voting {\n\n  mapping (bytes32 => uint8) public votesReceived;\n  bytes32[] public candidateList;\n\n  constructor (bytes32[] memory candidateNames) public {\n    candidateList = candidateNames;\n  }\n\n  function totalVotesFor(bytes32 candidate) view public returns (uint8) {\n    require(validCandidate(candidate));\n    return votesReceived[candidate];\n  }\n\n  function voteForCandidate(bytes32 candidate) public {\n    require(validCandidate(candidate));\n    votesReceived[candidate]  += 1;\n  }\n\n  function validCandidate(bytes32 candidate) view public returns (bool) {\n    for(uint i = 0; i < candidateList.length; i++) {\n      if (candidateList[i] == candidate) {\n        return true;\n      }\n    }\n    return false;\n   }\n}",
  "sourcePath": "C:\\blockchain\\repo\\chapter2\\contracts\\Voting.sol",
  "compiler": {
    "name": "solc",
    "version": "0.5.16+commit.9c3226ce.Emscripten.clang"
  },
  "schemaVersion": "3.4.10",
  "updatedAt": "2022-11-06T02:25:14.653Z",
  "networkType": "ethereum",
  "devdoc": {
    "methods": {}
  },
  "userdoc": {
    "methods": {}
  }
}